:020000040000FA
:020000000528D1
:080008000900831603178801AB
:10001000890183120313850186010130870083164D
:10002000C0308500FF308600B030870077308F0009
:100030000430831292000130831692000130831243
:1000400095000F309700831603174830870003137D
:1000500003309900243098008312903098000000FB
:1000600000008C1E302800001A088500F000F01FE8
:100070003028701B47288316FF308600831200004B
:100080008714071006080714990000003028871508
:1000900000008C1E48288316860183121A088600E9
:0C00A0008710071000000714871130289B
:00000001FF
