:020000040000FA
:020000000528D1
:0800080009008B1B831603178E
:10001000880189018312031385018601013087005D
:100020008316C0308500FF308600B03087007730FF
:100030008F00043083129200013083169200013049
:10004000831295000F3097008316031748308700FE
:1000500003130330990024309800831290309800E5
:10006000000000008C1E312800001A088500F000F6
:10007000F01F3128701B48288316FF30860083123A
:1000800000008714071006080714990000003128A3
:10009000871500008C1E49288316860183121A08D2
:0E00A000860087100710000007148711312812
:02400E00D42FAD
:00000001FF
